{
  "contractName": "Adoption",
  "abi": [
    {
      "constant": true,
      "inputs": [
        {
          "internalType": "uint256",
          "name": "",
          "type": "uint256"
        }
      ],
      "name": "adopters",
      "outputs": [
        {
          "internalType": "address",
          "name": "",
          "type": "address"
        }
      ],
      "payable": false,
      "stateMutability": "view",
      "type": "function"
    },
    {
      "constant": false,
      "inputs": [
        {
          "internalType": "uint256",
          "name": "petId",
          "type": "uint256"
        }
      ],
      "name": "adopt",
      "outputs": [
        {
          "internalType": "uint256",
          "name": "",
          "type": "uint256"
        }
      ],
      "payable": false,
      "stateMutability": "nonpayable",
      "type": "function"
    },
    {
      "constant": true,
      "inputs": [],
      "name": "getAdopters",
      "outputs": [
        {
          "internalType": "address[16]",
          "name": "",
          "type": "address[16]"
        }
      ],
      "payable": false,
      "stateMutability": "view",
      "type": "function"
    },
    {
      "constant": false,
      "inputs": [
        {
          "internalType": "uint256",
          "name": "a",
          "type": "uint256"
        },
        {
          "internalType": "uint256",
          "name": "b",
          "type": "uint256"
        }
      ],
      "name": "setSum",
      "outputs": [
        {
          "internalType": "bool",
          "name": "",
          "type": "bool"
        }
      ],
      "payable": false,
      "stateMutability": "nonpayable",
      "type": "function"
    }
  ],
  "bytecode": "0x608060405234801561001057600080fd5b506103aa806100206000396000f3fe608060405234801561001057600080fd5b506004361061004c5760003560e01c80633de4eb171461005157806343ae80d3146100975780635cce48e6146101055780638588b2c514610155575b600080fd5b610059610197565b6040518082601060200280838360005b83811015610084578082015181840152602081019050610069565b5050505090500191505060405180910390f35b6100c3600480360360208110156100ad57600080fd5b8101908080359060200190929190505050610218565b604051808273ffffffffffffffffffffffffffffffffffffffff1673ffffffffffffffffffffffffffffffffffffffff16815260200191505060405180910390f35b61013b6004803603604081101561011b57600080fd5b81019080803590602001909291908035906020019092919050505061024b565b604051808215151515815260200191505060405180910390f35b6101816004803603602081101561016b57600080fd5b81019080803590602001909291905050506102e1565b6040518082815260200191505060405180910390f35b61019f610352565b600060108060200260405190810160405280929190826010801561020e576020028201915b8160009054906101000a900473ffffffffffffffffffffffffffffffffffffffff1673ffffffffffffffffffffffffffffffffffffffff16815260200190600101908083116101c4575b5050505050905090565b6000816010811061022557fe5b016000915054906101000a900473ffffffffffffffffffffffffffffffffffffffff1681565b6000808311801561025c5750600082115b6102ce576040517f08c379a000000000000000000000000000000000000000000000000000000000815260040180806020018281038252601a8152602001807f4d7573742062652067726561746572207468616e207a65726f2100000000000081525060200191505060405180910390fd5b8183016010819055506001905092915050565b60008082101580156102f45750600f8211155b6102fd57600080fd5b336000836010811061030b57fe5b0160006101000a81548173ffffffffffffffffffffffffffffffffffffffff021916908373ffffffffffffffffffffffffffffffffffffffff160217905550819050919050565b60405180610200016040528060109060208202803883398082019150509050509056fea265627a7a723158208946977f0df86b4e310abd0cc8d31fe1909f24cd42be8b847b5fb9ae80ef716a64736f6c63430005100032",
  "source": "pragma solidity ^0.5.0;\n\ncontract Adoption {\n  address[16] public adopters;\n  uint internal c;\n\n  // Adopting a pet\n  function adopt(uint petId) public returns (uint) {\n    require(petId >= 0 && petId <= 15);\n\n    adopters[petId] = msg.sender;\n\n    return petId;\n  }\n\n  // Retrieving the adopters\n  function getAdopters() public view returns (address[16] memory) {\n    return adopters;\n  }\n\n  function setSum(uint a, uint b) public returns(bool){\n    require(a > 0 && b > 0, \"Must be greater than zero!\");\n    c = a + b;\n    return true;\n  }\n}\n",
  "sourcePath": "/home/felipe/Documents/Blockchain/pet-shop-tutorial-master/contracts/Adoption.sol",
  "compiler": {
    "name": "solc",
    "version": "0.5.16+commit.9c3226ce.Emscripten.clang"
  },
  "schemaVersion": "3.3.4",
  "updatedAt": "2021-03-07T12:21:19.282Z",
  "networkType": "ethereum",
  "devdoc": {
    "methods": {}
  },
  "userdoc": {
    "methods": {}
  }
}