{
  "contractName": "NavyBay",
  "abi": [
    {
      "constant": false,
      "inputs": [
        {
          "internalType": "string",
          "name": "name",
          "type": "string"
        },
        {
          "internalType": "string",
          "name": "cat",
          "type": "string"
        },
        {
          "internalType": "string",
          "name": "email",
          "type": "string"
        },
        {
          "internalType": "string",
          "name": "pass",
          "type": "string"
        }
      ],
      "name": "setNewUser",
      "outputs": [
        {
          "internalType": "bool",
          "name": "",
          "type": "bool"
        }
      ],
      "payable": false,
      "stateMutability": "nonpayable",
      "type": "function"
    },
    {
      "constant": true,
      "inputs": [
        {
          "internalType": "string",
          "name": "email",
          "type": "string"
        },
        {
          "internalType": "string",
          "name": "pass",
          "type": "string"
        }
      ],
      "name": "loginUser",
      "outputs": [
        {
          "internalType": "bool",
          "name": "",
          "type": "bool"
        }
      ],
      "payable": false,
      "stateMutability": "view",
      "type": "function"
    },
    {
      "constant": false,
      "inputs": [
        {
          "internalType": "string",
          "name": "hashed",
          "type": "string"
        },
        {
          "internalType": "string",
          "name": "cat",
          "type": "string"
        },
        {
          "internalType": "string",
          "name": "title",
          "type": "string"
        },
        {
          "internalType": "uint256",
          "name": "price",
          "type": "uint256"
        }
      ],
      "name": "setNewFile",
      "outputs": [
        {
          "internalType": "bool",
          "name": "",
          "type": "bool"
        }
      ],
      "payable": false,
      "stateMutability": "nonpayable",
      "type": "function"
    },
    {
      "constant": false,
      "inputs": [
        {
          "internalType": "string",
          "name": "hashed",
          "type": "string"
        }
      ],
      "name": "buyFile",
      "outputs": [
        {
          "internalType": "bool",
          "name": "",
          "type": "bool"
        }
      ],
      "payable": false,
      "stateMutability": "nonpayable",
      "type": "function"
    }
  ],
  "bytecode": "0x608060405234801561001057600080fd5b50611369806100206000396000f3fe608060405234801561001057600080fd5b506004361061004c5760003560e01c806322ce12e514610051578063465c663f146101bb5780639e52857c1461028e578063a8e13fa414610526575b600080fd5b6101a16004803603604081101561006757600080fd5b810190808035906020019064010000000081111561008457600080fd5b82018360208201111561009657600080fd5b803590602001918460018302840111640100000000831117156100b857600080fd5b91908080601f016020809104026020016040519081016040528093929190818152602001838380828437600081840152601f19601f8201169050808301925050505050505091929192908035906020019064010000000081111561011b57600080fd5b82018360208201111561012d57600080fd5b8035906020019184600183028401116401000000008311171561014f57600080fd5b91908080601f016020809104026020016040519081016040528093929190818152602001838380828437600081840152601f19601f820116905080830192505050505050509192919290505050610731565b604051808215151515815260200191505060405180910390f35b610274600480360360208110156101d157600080fd5b81019080803590602001906401000000008111156101ee57600080fd5b82018360208201111561020057600080fd5b8035906020019184600183028401116401000000008311171561022257600080fd5b91908080601f016020809104026020016040519081016040528093929190818152602001838380828437600081840152601f19601f820116905080830192505050505050509192919290505050610979565b604051808215151515815260200191505060405180910390f35b61050c600480360360808110156102a457600080fd5b81019080803590602001906401000000008111156102c157600080fd5b8201836020820111156102d357600080fd5b803590602001918460018302840111640100000000831117156102f557600080fd5b91908080601f016020809104026020016040519081016040528093929190818152602001838380828437600081840152601f19601f8201169050808301925050505050505091929192908035906020019064010000000081111561035857600080fd5b82018360208201111561036a57600080fd5b8035906020019184600183028401116401000000008311171561038c57600080fd5b91908080601f016020809104026020016040519081016040528093929190818152602001838380828437600081840152601f19601f820116905080830192505050505050509192919290803590602001906401000000008111156103ef57600080fd5b82018360208201111561040157600080fd5b8035906020019184600183028401116401000000008311171561042357600080fd5b91908080601f016020809104026020016040519081016040528093929190818152602001838380828437600081840152601f19601f8201169050808301925050505050505091929192908035906020019064010000000081111561048657600080fd5b82018360208201111561049857600080fd5b803590602001918460018302840111640100000000831117156104ba57600080fd5b91908080601f016020809104026020016040519081016040528093929190818152602001838380828437600081840152601f19601f820116905080830192505050505050509192919290505050610c00565b604051808215151515815260200191505060405180910390f35b6107176004803603608081101561053c57600080fd5b810190808035906020019064010000000081111561055957600080fd5b82018360208201111561056b57600080fd5b8035906020019184600183028401116401000000008311171561058d57600080fd5b91908080601f016020809104026020016040519081016040528093929190818152602001838380828437600081840152601f19601f820116905080830192505050505050509192919290803590602001906401000000008111156105f057600080fd5b82018360208201111561060257600080fd5b8035906020019184600183028401116401000000008311171561062457600080fd5b91908080601f016020809104026020016040519081016040528093929190818152602001838380828437600081840152601f19601f8201169050808301925050505050505091929192908035906020019064010000000081111561068757600080fd5b82018360208201111561069957600080fd5b803590602001918460018302840111640100000000831117156106bb57600080fd5b91908080601f016020809104026020016040519081016040528093929190818152602001838380828437600081840152601f19601f82011690508083019250505050505050919291929080359060200190929190505050610ee4565b604051808215151515815260200191505060405180910390f35b6000600115156000803373ffffffffffffffffffffffffffffffffffffffff1673ffffffffffffffffffffffffffffffffffffffff16815260200190815260200160002060050160009054906101000a900460ff161515148015610843575082805190602001206000803373ffffffffffffffffffffffffffffffffffffffff1673ffffffffffffffffffffffffffffffffffffffff16815260200190815260200160002060020160405180828054600181600116156101000203166002900480156108345780601f10610812576101008083540402835291820191610834565b820191906000526020600020905b815481529060010190602001808311610820575b50509150506040518091039020145b80156108fd575081805190602001206000803373ffffffffffffffffffffffffffffffffffffffff1673ffffffffffffffffffffffffffffffffffffffff16815260200190815260200160002060030160405180828054600181600116156101000203166002900480156108ee5780601f106108cc5761010080835404028352918201916108ee565b820191906000526020600020905b8154815290600101906020018083116108da575b50509150506040518091039020145b61096f576040517f08c379a00000000000000000000000000000000000000000000000000000000081526004018080602001828103825260148152602001807f496e76616c69642063726564656e7469616c732100000000000000000000000081525060200191505060405180910390fd5b6001905092915050565b60006001826040518082805190602001908083835b602083106109b1578051825260208201915060208101905060208303925061098e565b6001836020036101000a0380198251168184511680821785525050505050509050019150509081526020016040518091039020600201546000803373ffffffffffffffffffffffffffffffffffffffff1673ffffffffffffffffffffffffffffffffffffffff16815260200190815260200160002060040154036000803373ffffffffffffffffffffffffffffffffffffffff1673ffffffffffffffffffffffffffffffffffffffff1681526020019081526020016000206004018190555060006001836040518082805190602001908083835b60208310610aa85780518252602082019150602081019050602083039250610a85565b6001836020036101000a038019825116818451168082178552505050505050905001915050908152602001604051809103902060030160009054906101000a900473ffffffffffffffffffffffffffffffffffffffff1690506001836040518082805190602001908083835b60208310610b375780518252602082019150602081019050602083039250610b14565b6001836020036101000a0380198251168184511680821785525050505050509050019150509081526020016040518091039020600201546000808373ffffffffffffffffffffffffffffffffffffffff1673ffffffffffffffffffffffffffffffffffffffff16815260200190815260200160002060040154016000808373ffffffffffffffffffffffffffffffffffffffff1673ffffffffffffffffffffffffffffffffffffffff168152602001908152602001600020600401819055506001915050919050565b60008015156000803373ffffffffffffffffffffffffffffffffffffffff1673ffffffffffffffffffffffffffffffffffffffff16815260200190815260200160002060050160009054906101000a900460ff16151514610cc9576040517f08c379a000000000000000000000000000000000000000000000000000000000815260040180806020018281038252601e8152602001807f57616c6c6574206163636f756e7420616c726561647920696e2075736521000081525060200191505060405180910390fd5b846000803373ffffffffffffffffffffffffffffffffffffffff1673ffffffffffffffffffffffffffffffffffffffff1681526020019081526020016000206000019080519060200190610d1e929190611269565b50836000803373ffffffffffffffffffffffffffffffffffffffff1673ffffffffffffffffffffffffffffffffffffffff1681526020019081526020016000206001019080519060200190610d74929190611269565b50826000803373ffffffffffffffffffffffffffffffffffffffff1673ffffffffffffffffffffffffffffffffffffffff1681526020019081526020016000206002019080519060200190610dca929190611269565b50816000803373ffffffffffffffffffffffffffffffffffffffff1673ffffffffffffffffffffffffffffffffffffffff1681526020019081526020016000206003019080519060200190610e20929190611269565b503373ffffffffffffffffffffffffffffffffffffffff16316000803373ffffffffffffffffffffffffffffffffffffffff1673ffffffffffffffffffffffffffffffffffffffff1681526020019081526020016000206004018190555060016000803373ffffffffffffffffffffffffffffffffffffffff1673ffffffffffffffffffffffffffffffffffffffff16815260200190815260200160002060050160006101000a81548160ff02191690831515021790555060019050949350505050565b60008015156001866040518082805190602001908083835b60208310610f1f5780518252602082019150602081019050602083039250610efc565b6001836020036101000a038019825116818451168082178552505050505050905001915050908152602001604051809103902060030160149054906101000a900460ff16151514610fbb576040517f08c379a000000000000000000000000000000000000000000000000000000000815260040180806020018281038252602681526020018061130f6026913960400191505060405180910390fd5b836001866040518082805190602001908083835b60208310610ff25780518252602082019150602081019050602083039250610fcf565b6001836020036101000a0380198251168184511680821785525050505050509050019150509081526020016040518091039020600001908051906020019061103b929190611269565b50826001866040518082805190602001908083835b602083106110735780518252602082019150602081019050602083039250611050565b6001836020036101000a038019825116818451168082178552505050505050905001915050908152602001604051809103902060010190805190602001906110bc929190611269565b50816001866040518082805190602001908083835b602083106110f457805182526020820191506020810190506020830392506110d1565b6001836020036101000a038019825116818451168082178552505050505050905001915050908152602001604051809103902060020181905550336001866040518082805190602001908083835b602083106111655780518252602082019150602081019050602083039250611142565b6001836020036101000a038019825116818451168082178552505050505050905001915050908152602001604051809103902060030160006101000a81548173ffffffffffffffffffffffffffffffffffffffff021916908373ffffffffffffffffffffffffffffffffffffffff160217905550600180866040518082805190602001908083835b6020831061121057805182526020820191506020810190506020830392506111ed565b6001836020036101000a038019825116818451168082178552505050505050905001915050908152602001604051809103902060030160146101000a81548160ff02191690831515021790555060019050949350505050565b828054600181600116156101000203166002900490600052602060002090601f016020900481019282601f106112aa57805160ff19168380011785556112d8565b828001600101855582156112d8579182015b828111156112d75782518255916020019190600101906112bc565b5b5090506112e591906112e9565b5090565b61130b91905b808211156113075760008160009055506001016112ef565b5090565b9056fe46696c6520616c72656164792065786973747320696e2074686520626c6f636b636861696e21a265627a7a72315820f1930cc33fc36276d7ff95785911047dbad02671d216c4d89f6bc55e992d479f64736f6c63430005100032",
  "source": "pragma solidity ^0.5.0;\n\ncontract NavyBay{\n\n  struct File{\n    string cat;\n    string title;\n    uint price;\n    address owner;\n    bool exist;\n  }\n\n  struct User{\n    string name;\n    string cat;\n    string email;\n    string pass;\n    uint amount;\n    bool exist;\n  }\n\n  mapping (address => User) internal users;\n  mapping (string => File) internal files;\n\n  function setNewUser(string memory name, string memory cat, string memory email, string memory pass)\n  public returns(bool){\n    require(users[msg.sender].exist == false,\n            \"Wallet account already in use!\");\n\n    users[msg.sender].name = name;\n    users[msg.sender].cat = cat;\n    users[msg.sender].email = email;\n    users[msg.sender].pass = pass;\n    users[msg.sender].amount = address(msg.sender).balance;\n    users[msg.sender].exist = true;\n    return true;\n  }\n\n  function loginUser(string memory email, string memory pass)\n  public view returns(bool){\n    require(users[msg.sender].exist == true &&\n            keccak256(bytes(users[msg.sender].email)) == keccak256(bytes(email)) &&\n            keccak256(bytes(users[msg.sender].pass)) == keccak256(bytes(pass)),\n            \"Invalid credentials!\");\n    \n    return true;\n  }\n\n  function stringToBytes8(string memory sourceStr)\n  private pure returns(bytes8){\n    bytes8 temp = 0x0;\n    assembly {\n      temp := mload(add(sourceStr, 32))\n    }\n    return temp;\n  }\n\n  function setNewFile(string memory hashed, string memory cat, string memory title, uint price)\n  public returns(bool){\n    require(files[hashed].exist == false,\n            \"File already exists in the blockchain!\");\n    files[hashed].cat = cat;\n    files[hashed].title = title;\n    files[hashed].price = price;\n    files[hashed].owner = msg.sender;\n    files[hashed].exist = true;\n    return true;\n  }\n\n  function buyFile(string memory hashed)\n  public returns(bool){\n    users[msg.sender].amount = users[msg.sender].amount - files[hashed].price;\n    address destination = address(files[hashed].owner);\n    users[destination].amount = users[destination].amount + files[hashed].price;\n    return true;\n  }\n}\n",
  "sourcePath": "/home/felipe/Documents/Blockchain/navy-bay/contracts/NavyBay.sol",
  "compiler": {
    "name": "solc",
    "version": "0.5.16+commit.9c3226ce.Emscripten.clang"
  },
  "schemaVersion": "3.3.4",
  "updatedAt": "2021-03-07T20:14:01.854Z",
  "networkType": "ethereum",
  "devdoc": {
    "methods": {}
  },
  "userdoc": {
    "methods": {}
  }
}